{
  "contractName": "Auction",
  "abi": [
    {
      "inputs": [
        {
          "name": "_sellerAddress",
          "type": "address"
        },
        {
          "name": "_judgeAddress",
          "type": "address"
        },
        {
          "name": "_timerAddress",
          "type": "address"
        }
      ],
      "payable": false,
      "stateMutability": "nonpayable",
      "type": "constructor"
    },
    {
      "constant": true,
      "inputs": [],
      "name": "time",
      "outputs": [
        {
          "name": "",
          "type": "uint256"
        }
      ],
      "payable": false,
      "stateMutability": "view",
      "type": "function"
    },
    {
      "constant": true,
      "inputs": [],
      "name": "getWinner",
      "outputs": [
        {
          "name": "winner",
          "type": "address"
        }
      ],
      "payable": false,
      "stateMutability": "view",
      "type": "function"
    },
    {
      "constant": true,
      "inputs": [],
      "name": "getWinningPrice",
      "outputs": [
        {
          "name": "price",
          "type": "uint256"
        }
      ],
      "payable": false,
      "stateMutability": "view",
      "type": "function"
    },
    {
      "constant": false,
      "inputs": [],
      "name": "finalize",
      "outputs": [],
      "payable": false,
      "stateMutability": "nonpayable",
      "type": "function"
    },
    {
      "constant": false,
      "inputs": [],
      "name": "refund",
      "outputs": [],
      "payable": false,
      "stateMutability": "nonpayable",
      "type": "function"
    },
    {
      "constant": false,
      "inputs": [],
      "name": "withdraw",
      "outputs": [],
      "payable": false,
      "stateMutability": "nonpayable",
      "type": "function"
    }
  ],
  "bytecode": "0x608060405234801561001057600080fd5b50604051606080610986833981018060405281019080805190602001909291908051906020019092919080519060200190929190505050816000806101000a81548173ffffffffffffffffffffffffffffffffffffffff021916908373ffffffffffffffffffffffffffffffffffffffff16021790555080600160006101000a81548173ffffffffffffffffffffffffffffffffffffffff021916908373ffffffffffffffffffffffffffffffffffffffff16021790555082600260006101000a81548173ffffffffffffffffffffffffffffffffffffffff021916908373ffffffffffffffffffffffffffffffffffffffff16021790555030600460006101000a81548173ffffffffffffffffffffffffffffffffffffffff021916908373ffffffffffffffffffffffffffffffffffffffff1602179055506000600460146101000a81548160ff0219169083151502179055506000600260009054906101000a900473ffffffffffffffffffffffffffffffffffffffff1673ffffffffffffffffffffffffffffffffffffffff1614156101e85733600260006101000a81548173ffffffffffffffffffffffffffffffffffffffff021916908373ffffffffffffffffffffffffffffffffffffffff1602179055505b50505061078c806101fa6000396000f300608060405260043610610078576000357c0100000000000000000000000000000000000000000000000000000000900463ffffffff16806316ada5471461007d5780633ccfd60b146100a85780634bb278f3146100bf578063590e1ae3146100d65780638e7ea5b2146100ed578063d68895d814610144575b600080fd5b34801561008957600080fd5b5061009261016f565b6040518082815260200191505060405180910390f35b3480156100b457600080fd5b506100bd610281565b005b3480156100cb57600080fd5b506100d4610416565b005b3480156100e257600080fd5b506100eb610542565b005b3480156100f957600080fd5b5061010261072c565b604051808273ffffffffffffffffffffffffffffffffffffffff1673ffffffffffffffffffffffffffffffffffffffff16815260200191505060405180910390f35b34801561015057600080fd5b50610159610756565b6040518082815260200191505060405180910390f35b600080600160009054906101000a900473ffffffffffffffffffffffffffffffffffffffff1673ffffffffffffffffffffffffffffffffffffffff1614151561027a57600160009054906101000a900473ffffffffffffffffffffffffffffffffffffffff1673ffffffffffffffffffffffffffffffffffffffff1663557ed1ba6040518163ffffffff167c0100000000000000000000000000000000000000000000000000000000028152600401602060405180830381600087803b15801561023857600080fd5b505af115801561024c573d6000803e3d6000fd5b505050506040513d602081101561026257600080fd5b8101908080519060200190929190505050905061027e565b4390505b90565b600260009054906101000a900473ffffffffffffffffffffffffffffffffffffffff1673ffffffffffffffffffffffffffffffffffffffff163373ffffffffffffffffffffffffffffffffffffffff16148061032957506000809054906101000a900473ffffffffffffffffffffffffffffffffffffffff1673ffffffffffffffffffffffffffffffffffffffff163373ffffffffffffffffffffffffffffffffffffffff16145b15610414576000600360009054906101000a900473ffffffffffffffffffffffffffffffffffffffff1673ffffffffffffffffffffffffffffffffffffffff1614151561041357600360009054906101000a900473ffffffffffffffffffffffffffffffffffffffff1673ffffffffffffffffffffffffffffffffffffffff166108fc600460009054906101000a900473ffffffffffffffffffffffffffffffffffffffff1673ffffffffffffffffffffffffffffffffffffffff16319081150290604051600060405180830381858888f19350505050158015610411573d6000803e3d6000fd5b505b5b565b60008060009054906101000a900473ffffffffffffffffffffffffffffffffffffffff1673ffffffffffffffffffffffffffffffffffffffff161415610476576001600460146101000a81548160ff021916908315150217905550610540565b6000809054906101000a900473ffffffffffffffffffffffffffffffffffffffff1673ffffffffffffffffffffffffffffffffffffffff163373ffffffffffffffffffffffffffffffffffffffff16148061051e5750600360009054906101000a900473ffffffffffffffffffffffffffffffffffffffff1673ffffffffffffffffffffffffffffffffffffffff163373ffffffffffffffffffffffffffffffffffffffff16145b1561053f576001600460146101000a81548160ff0219169083151502179055505b5b565b600260009054906101000a900473ffffffffffffffffffffffffffffffffffffffff166000809054906101000a900473ffffffffffffffffffffffffffffffffffffffff168173ffffffffffffffffffffffffffffffffffffffff163373ffffffffffffffffffffffffffffffffffffffff1614806105ec57508073ffffffffffffffffffffffffffffffffffffffff163373ffffffffffffffffffffffffffffffffffffffff16145b15156106ac576040517f08c379a00000000000000000000000000000000000000000000000000000000081526004018080602001828103825260488152602001807f546869732061646472657373206973206e6f742061626c6520746f2063616c6c81526020017f20746869732066756e6374696f6e20286f6e6c792074776f206164647265737381526020017f65732063616e292e00000000000000000000000000000000000000000000000081525060600191505060405180910390fd5b3073ffffffffffffffffffffffffffffffffffffffff16633ccfd60b6040518163ffffffff167c0100000000000000000000000000000000000000000000000000000000028152600401600060405180830381600087803b15801561071057600080fd5b505af1158015610724573d6000803e3d6000fd5b505050505050565b6000600360009054906101000a900473ffffffffffffffffffffffffffffffffffffffff16905090565b60006005549050905600a165627a7a72305820f4699087ad38d2cbfe3ad76bf942c17d8ec79df8dc2b5f70b1145392741af7920029",
  "source": "pragma solidity ^0.4.18;\r\nimport \"./Timer.sol\";\r\n\r\ncontract Auction {\r\n\r\n    address internal judgeAddress;\r\n    address internal timerAddress;\r\n    address internal sellerAddress;\r\n    address internal winnerAddress;\r\n    address internal contractAddress;\r\n    bool internal finalized;\r\n    uint winningPrice;\r\n\r\n    // TODO: place your code here\r\n\r\n    // constructor\r\n    constructor(address _sellerAddress,\r\n                     address _judgeAddress,\r\n                     address _timerAddress) public {\r\n\r\n        judgeAddress = _judgeAddress;\r\n        timerAddress = _timerAddress;\r\n        sellerAddress = _sellerAddress;\r\n        contractAddress = address(this);\r\n        finalized = false;\r\n        if (sellerAddress == 0)\r\n          sellerAddress = msg.sender;\r\n    }\r\n\r\n    modifier onlyBy(address _valid) {\r\n      require(\r\n        msg.sender == _valid,\r\n        \"This address is not able to call this function (only one address can).\"\r\n      );\r\n      _;\r\n    }\r\n\r\n    modifier onlyByOr(address _valid1, address _valid2) {\r\n      require(\r\n        msg.sender == _valid1 || msg.sender == _valid2,\r\n        \"This address is not able to call this function (only two addresses can).\"\r\n      );\r\n      _;\r\n    }\r\n\r\n    modifier onlyAfterTimer() {\r\n      require(\r\n        time() != 0,\r\n        \"Time is invalid to call this function.\"\r\n      );\r\n      _;\r\n    }\r\n\r\n    // This is provided for testing\r\n    // You should use this instead of block.number directly\r\n    // You should not modify this function.\r\n    function time() public view returns (uint) {\r\n        if (timerAddress != 0)\r\n          return Timer(timerAddress).getTime();\r\n\r\n        return block.number;\r\n    }\r\n\r\n    function getWinner() public view returns (address winner) {\r\n        return winnerAddress;\r\n    }\r\n\r\n    function getWinningPrice() public view returns (uint price) {\r\n        return winningPrice;\r\n    }\r\n\r\n    // If no judge is specified, anybody can call this.\r\n    // If a judge is specified, then only the judge or winning bidder may call.\r\n    function finalize() public {\r\n        if (judgeAddress == 0) {\r\n          finalized = true;\r\n        }\r\n        else {\r\n          if (msg.sender == judgeAddress || msg.sender == winnerAddress) {\r\n            finalized = true;\r\n          }\r\n        }\r\n    }\r\n\r\n    // This can ONLY be called by seller or the judge (if a judge exists).\r\n    // Money should only be refunded to the winner.\r\n    function refund() public onlyByOr( sellerAddress, judgeAddress ) {\r\n        // TODO: place your code here\r\n        this.withdraw();\r\n    }\r\n\r\n    // Withdraw funds from the contract.\r\n    // If called, all funds available to the caller should be refunded.\r\n    // This should be the *only* place the contract ever transfers funds out.\r\n    // Ensure that your withdrawal functionality is not vulnerable to\r\n    // re-entrancy or unchecked-spend vulnerabilities.\r\n    function withdraw() public {\r\n        //TODO: place your code here\r\n        if ( msg.sender == sellerAddress || msg.sender == judgeAddress ) {\r\n          if (winnerAddress != 0) winnerAddress.transfer(contractAddress.balance);\r\n        }\r\n    }\r\n\r\n}\r\n",
  "sourcePath": "C:\\Users\\swelly-mapper\\Projects\\CRYPTO\\solidityAuctionHouse\\contracts\\Auction.sol",
  "compiler": {
    "name": "solc",
    "version": "0.4.24+commit.e67f0147.Emscripten.clang"
  },
  "schemaVersion": "2.0.1",
  "updatedAt": "2018-12-01T23:01:12.714Z"
}