{
  "contractName": "DutchAuction",
  "abi": [
    {
      "constant": true,
      "inputs": [],
      "name": "time",
      "outputs": [
        {
          "name": "",
          "type": "uint256"
        }
      ],
      "payable": false,
      "stateMutability": "view",
      "type": "function"
    },
    {
      "constant": true,
      "inputs": [],
      "name": "initialPrice",
      "outputs": [
        {
          "name": "",
          "type": "uint256"
        }
      ],
      "payable": false,
      "stateMutability": "view",
      "type": "function"
    },
    {
      "constant": false,
      "inputs": [],
      "name": "withdraw",
      "outputs": [],
      "payable": false,
      "stateMutability": "nonpayable",
      "type": "function"
    },
    {
      "constant": false,
      "inputs": [],
      "name": "finalize",
      "outputs": [],
      "payable": false,
      "stateMutability": "nonpayable",
      "type": "function"
    },
    {
      "constant": false,
      "inputs": [],
      "name": "refund",
      "outputs": [],
      "payable": false,
      "stateMutability": "nonpayable",
      "type": "function"
    },
    {
      "constant": true,
      "inputs": [],
      "name": "biddingPeriod",
      "outputs": [
        {
          "name": "",
          "type": "uint256"
        }
      ],
      "payable": false,
      "stateMutability": "view",
      "type": "function"
    },
    {
      "constant": true,
      "inputs": [],
      "name": "getWinner",
      "outputs": [
        {
          "name": "winner",
          "type": "address"
        }
      ],
      "payable": false,
      "stateMutability": "view",
      "type": "function"
    },
    {
      "constant": true,
      "inputs": [],
      "name": "offerPriceDecrement",
      "outputs": [
        {
          "name": "",
          "type": "uint256"
        }
      ],
      "payable": false,
      "stateMutability": "view",
      "type": "function"
    },
    {
      "constant": true,
      "inputs": [],
      "name": "getWinningPrice",
      "outputs": [
        {
          "name": "price",
          "type": "uint256"
        }
      ],
      "payable": false,
      "stateMutability": "view",
      "type": "function"
    },
    {
      "inputs": [
        {
          "name": "_sellerAddress",
          "type": "address"
        },
        {
          "name": "_judgeAddress",
          "type": "address"
        },
        {
          "name": "_timerAddress",
          "type": "address"
        },
        {
          "name": "_initialPrice",
          "type": "uint256"
        },
        {
          "name": "_biddingPeriod",
          "type": "uint256"
        },
        {
          "name": "_offerPriceDecrement",
          "type": "uint256"
        }
      ],
      "payable": false,
      "stateMutability": "nonpayable",
      "type": "constructor"
    },
    {
      "constant": false,
      "inputs": [],
      "name": "bid",
      "outputs": [],
      "payable": true,
      "stateMutability": "payable",
      "type": "function"
    }
  ],
  "bytecode": "0x608060405234801561001057600080fd5b5060405160c080610a8d833981018060405281019080805190602001909291908051906020019092919080519060200190929190805190602001909291908051906020019092919080519060200190929190505050858585816000806101000a81548173ffffffffffffffffffffffffffffffffffffffff021916908373ffffffffffffffffffffffffffffffffffffffff16021790555080600160006101000a81548173ffffffffffffffffffffffffffffffffffffffff021916908373ffffffffffffffffffffffffffffffffffffffff16021790555082600260006101000a81548173ffffffffffffffffffffffffffffffffffffffff021916908373ffffffffffffffffffffffffffffffffffffffff16021790555030600460006101000a81548173ffffffffffffffffffffffffffffffffffffffff021916908373ffffffffffffffffffffffffffffffffffffffff1602179055506000600460146101000a81548160ff0219169083151502179055506000600260009054906101000a900473ffffffffffffffffffffffffffffffffffffffff1673ffffffffffffffffffffffffffffffffffffffff1614156102095733600260006101000a81548173ffffffffffffffffffffffffffffffffffffffff021916908373ffffffffffffffffffffffffffffffffffffffff1602179055505b505050826006819055508160078190555080600881905550505050505050610857806102366000396000f3006080604052600436106100a4576000357c0100000000000000000000000000000000000000000000000000000000900463ffffffff16806316ada547146100a95780631998aeef146100d45780631d0806ae146100de5780633ccfd60b146101095780634bb278f314610120578063590e1ae3146101375780635f8909bd1461014e5780638e7ea5b214610179578063d3642a88146101d0578063d68895d8146101fb575b600080fd5b3480156100b557600080fd5b506100be610226565b6040518082815260200191505060405180910390f35b6100dc610338565b005b3480156100ea57600080fd5b506100f361033a565b6040518082815260200191505060405180910390f35b34801561011557600080fd5b5061011e610340565b005b34801561012c57600080fd5b506101356104d5565b005b34801561014357600080fd5b5061014c610601565b005b34801561015a57600080fd5b506101636107eb565b6040518082815260200191505060405180910390f35b34801561018557600080fd5b5061018e6107f1565b604051808273ffffffffffffffffffffffffffffffffffffffff1673ffffffffffffffffffffffffffffffffffffffff16815260200191505060405180910390f35b3480156101dc57600080fd5b506101e561081b565b6040518082815260200191505060405180910390f35b34801561020757600080fd5b50610210610821565b6040518082815260200191505060405180910390f35b600080600160009054906101000a900473ffffffffffffffffffffffffffffffffffffffff1673ffffffffffffffffffffffffffffffffffffffff1614151561033157600160009054906101000a900473ffffffffffffffffffffffffffffffffffffffff1673ffffffffffffffffffffffffffffffffffffffff1663557ed1ba6040518163ffffffff167c0100000000000000000000000000000000000000000000000000000000028152600401602060405180830381600087803b1580156102ef57600080fd5b505af1158015610303573d6000803e3d6000fd5b505050506040513d602081101561031957600080fd5b81019080805190602001909291905050509050610335565b4390505b90565b565b60065481565b600260009054906101000a900473ffffffffffffffffffffffffffffffffffffffff1673ffffffffffffffffffffffffffffffffffffffff163373ffffffffffffffffffffffffffffffffffffffff1614806103e857506000809054906101000a900473ffffffffffffffffffffffffffffffffffffffff1673ffffffffffffffffffffffffffffffffffffffff163373ffffffffffffffffffffffffffffffffffffffff16145b156104d3576000600360009054906101000a900473ffffffffffffffffffffffffffffffffffffffff1673ffffffffffffffffffffffffffffffffffffffff161415156104d257600360009054906101000a900473ffffffffffffffffffffffffffffffffffffffff1673ffffffffffffffffffffffffffffffffffffffff166108fc600460009054906101000a900473ffffffffffffffffffffffffffffffffffffffff1673ffffffffffffffffffffffffffffffffffffffff16319081150290604051600060405180830381858888f193505050501580156104d0573d6000803e3d6000fd5b505b5b565b60008060009054906101000a900473ffffffffffffffffffffffffffffffffffffffff1673ffffffffffffffffffffffffffffffffffffffff161415610535576001600460146101000a81548160ff0219169083151502179055506105ff565b6000809054906101000a900473ffffffffffffffffffffffffffffffffffffffff1673ffffffffffffffffffffffffffffffffffffffff163373ffffffffffffffffffffffffffffffffffffffff1614806105dd5750600360009054906101000a900473ffffffffffffffffffffffffffffffffffffffff1673ffffffffffffffffffffffffffffffffffffffff163373ffffffffffffffffffffffffffffffffffffffff16145b156105fe576001600460146101000a81548160ff0219169083151502179055505b5b565b600260009054906101000a900473ffffffffffffffffffffffffffffffffffffffff166000809054906101000a900473ffffffffffffffffffffffffffffffffffffffff168173ffffffffffffffffffffffffffffffffffffffff163373ffffffffffffffffffffffffffffffffffffffff1614806106ab57508073ffffffffffffffffffffffffffffffffffffffff163373ffffffffffffffffffffffffffffffffffffffff16145b151561076b576040517f08c379a00000000000000000000000000000000000000000000000000000000081526004018080602001828103825260488152602001807f546869732061646472657373206973206e6f742061626c6520746f2063616c6c81526020017f20746869732066756e6374696f6e20286f6e6c792074776f206164647265737381526020017f65732063616e292e00000000000000000000000000000000000000000000000081525060600191505060405180910390fd5b3073ffffffffffffffffffffffffffffffffffffffff16633ccfd60b6040518163ffffffff167c0100000000000000000000000000000000000000000000000000000000028152600401600060405180830381600087803b1580156107cf57600080fd5b505af11580156107e3573d6000803e3d6000fd5b505050505050565b60075481565b6000600360009054906101000a900473ffffffffffffffffffffffffffffffffffffffff16905090565b60085481565b60006005549050905600a165627a7a723058200a5ca7ebd681c70a963f6e5656d32805ba30d0f93b7fdd0968da7d38f014b4820029",
  "source": "pragma solidity ^0.4.18;\r\nimport \"./Auction.sol\";\r\n\r\ncontract DutchAuction is Auction {\r\n\r\n    uint public initialPrice;\r\n    uint public biddingPeriod;\r\n    uint public offerPriceDecrement;\r\n\r\n    // TODO: place your code here\r\n\r\n    // constructor\r\n    constructor(address _sellerAddress,\r\n                          address _judgeAddress,\r\n                          address _timerAddress,\r\n                          uint _initialPrice,\r\n                          uint _biddingPeriod,\r\n                          uint _offerPriceDecrement) public\r\n             Auction (_sellerAddress, _judgeAddress, _timerAddress) {\r\n\r\n        initialPrice = _initialPrice;\r\n        biddingPeriod = _biddingPeriod;\r\n        offerPriceDecrement = _offerPriceDecrement;\r\n\r\n        // TODO: place your code here\r\n    }\r\n\r\n\r\n    function bid() public payable{\r\n        // TODO: place your code here\r\n    }\r\n\r\n}\r\n",
  "sourcePath": "C:\\Users\\swelly-mapper\\Projects\\CRYPTO\\solidityAuctionHouse\\contracts\\DutchAuction.sol",
  "compiler": {
    "name": "solc",
    "version": "0.4.24+commit.e67f0147.Emscripten.clang"
  },
  "schemaVersion": "2.0.1",
  "updatedAt": "2018-12-01T23:01:12.716Z"
}