{
  "contractName": "EnglishAuction",
  "abi": [
    {
      "constant": true,
      "inputs": [],
      "name": "time",
      "outputs": [
        {
          "name": "",
          "type": "uint256"
        }
      ],
      "payable": false,
      "stateMutability": "view",
      "type": "function"
    },
    {
      "constant": true,
      "inputs": [],
      "name": "initialPrice",
      "outputs": [
        {
          "name": "",
          "type": "uint256"
        }
      ],
      "payable": false,
      "stateMutability": "view",
      "type": "function"
    },
    {
      "constant": false,
      "inputs": [],
      "name": "finalize",
      "outputs": [],
      "payable": false,
      "stateMutability": "nonpayable",
      "type": "function"
    },
    {
      "constant": false,
      "inputs": [],
      "name": "refund",
      "outputs": [],
      "payable": false,
      "stateMutability": "nonpayable",
      "type": "function"
    },
    {
      "constant": true,
      "inputs": [],
      "name": "biddingPeriod",
      "outputs": [
        {
          "name": "",
          "type": "uint256"
        }
      ],
      "payable": false,
      "stateMutability": "view",
      "type": "function"
    },
    {
      "constant": true,
      "inputs": [],
      "name": "getWinningPrice",
      "outputs": [
        {
          "name": "price",
          "type": "uint256"
        }
      ],
      "payable": false,
      "stateMutability": "view",
      "type": "function"
    },
    {
      "constant": true,
      "inputs": [],
      "name": "minimumPriceIncrement",
      "outputs": [
        {
          "name": "",
          "type": "uint256"
        }
      ],
      "payable": false,
      "stateMutability": "view",
      "type": "function"
    },
    {
      "inputs": [
        {
          "name": "_sellerAddress",
          "type": "address"
        },
        {
          "name": "_judgeAddress",
          "type": "address"
        },
        {
          "name": "_timerAddress",
          "type": "address"
        },
        {
          "name": "_initialPrice",
          "type": "uint256"
        },
        {
          "name": "_biddingPeriod",
          "type": "uint256"
        },
        {
          "name": "_minimumPriceIncrement",
          "type": "uint256"
        }
      ],
      "payable": false,
      "stateMutability": "nonpayable",
      "type": "constructor"
    },
    {
      "anonymous": false,
      "inputs": [
        {
          "indexed": false,
          "name": "str",
          "type": "string"
        }
      ],
      "name": "printStr",
      "type": "event"
    },
    {
      "anonymous": false,
      "inputs": [
        {
          "indexed": false,
          "name": "value",
          "type": "uint256"
        }
      ],
      "name": "print",
      "type": "event"
    },
    {
      "constant": false,
      "inputs": [],
      "name": "bid",
      "outputs": [],
      "payable": true,
      "stateMutability": "payable",
      "type": "function"
    },
    {
      "constant": true,
      "inputs": [],
      "name": "getWinner",
      "outputs": [
        {
          "name": "highestBidder",
          "type": "address"
        }
      ],
      "payable": false,
      "stateMutability": "view",
      "type": "function"
    },
    {
      "constant": false,
      "inputs": [],
      "name": "withdraw",
      "outputs": [],
      "payable": false,
      "stateMutability": "nonpayable",
      "type": "function"
    }
  ],
  "bytecode": "0x608060405234801561001057600080fd5b5060405160c08061147d833981018060405281019080805190602001909291908051906020019092919080519060200190929190805190602001909291908051906020019092919080519060200190929190505050858585816000806101000a81548173ffffffffffffffffffffffffffffffffffffffff021916908373ffffffffffffffffffffffffffffffffffffffff16021790555080600160006101000a81548173ffffffffffffffffffffffffffffffffffffffff021916908373ffffffffffffffffffffffffffffffffffffffff16021790555082600260006101000a81548173ffffffffffffffffffffffffffffffffffffffff021916908373ffffffffffffffffffffffffffffffffffffffff16021790555030600460006101000a81548173ffffffffffffffffffffffffffffffffffffffff021916908373ffffffffffffffffffffffffffffffffffffffff1602179055506000600460146101000a81548160ff0219169083151502179055506000600260009054906101000a900473ffffffffffffffffffffffffffffffffffffffff1673ffffffffffffffffffffffffffffffffffffffff1614156102095733600260006101000a81548173ffffffffffffffffffffffffffffffffffffffff021916908373ffffffffffffffffffffffffffffffffffffffff1602179055505b50505082600681905550816007819055508060088190555083600d60006101000a81548173ffffffffffffffffffffffffffffffffffffffff021916908373ffffffffffffffffffffffffffffffffffffffff160217905550600d60009054906101000a900473ffffffffffffffffffffffffffffffffffffffff1673ffffffffffffffffffffffffffffffffffffffff1663557ed1ba6040518163ffffffff167c0100000000000000000000000000000000000000000000000000000000028152600401602060405180830381600087803b1580156102e857600080fd5b505af11580156102fc573d6000803e3d6000fd5b505050506040513d602081101561031257600080fd5b8101908080519060200190929190505050600a8190555030600e60006101000a81548173ffffffffffffffffffffffffffffffffffffffff021916908373ffffffffffffffffffffffffffffffffffffffff1602179055505050505050506110fe8061037f6000396000f3006080604052600436106100a4576000357c0100000000000000000000000000000000000000000000000000000000900463ffffffff16806316ada547146100a95780631998aeef146100d45780631d0806ae146100de5780633ccfd60b146101095780634bb278f314610120578063590e1ae3146101375780635f8909bd1461014e5780638e7ea5b214610179578063d68895d8146101d0578063db341765146101fb575b600080fd5b3480156100b557600080fd5b506100be610226565b6040518082815260200191505060405180910390f35b6100dc610338565b005b3480156100ea57600080fd5b506100f361090a565b6040518082815260200191505060405180910390f35b34801561011557600080fd5b5061011e610910565b005b34801561012c57600080fd5b506101356109dd565b005b34801561014357600080fd5b5061014c610c3c565b005b34801561015a57600080fd5b50610163610ef2565b6040518082815260200191505060405180910390f35b34801561018557600080fd5b5061018e610ef8565b604051808273ffffffffffffffffffffffffffffffffffffffff1673ffffffffffffffffffffffffffffffffffffffff16815260200191505060405180910390f35b3480156101dc57600080fd5b506101e5610ffa565b6040518082815260200191505060405180910390f35b34801561020757600080fd5b50610210611004565b6040518082815260200191505060405180910390f35b600080600160009054906101000a900473ffffffffffffffffffffffffffffffffffffffff1673ffffffffffffffffffffffffffffffffffffffff1614151561033157600160009054906101000a900473ffffffffffffffffffffffffffffffffffffffff1673ffffffffffffffffffffffffffffffffffffffff1663557ed1ba6040518163ffffffff167c0100000000000000000000000000000000000000000000000000000000028152600401602060405180830381600087803b1580156102ef57600080fd5b505af1158015610303573d6000803e3d6000fd5b505050506040513d602081101561031957600080fd5b81019080805190602001909291905050509050610335565b4390505b90565b600d60009054906101000a900473ffffffffffffffffffffffffffffffffffffffff1673ffffffffffffffffffffffffffffffffffffffff1663557ed1ba6040518163ffffffff167c0100000000000000000000000000000000000000000000000000000000028152600401602060405180830381600087803b1580156103be57600080fd5b505af11580156103d2573d6000803e3d6000fd5b505050506040513d60208110156103e857600080fd5b8101908080519060200190929190505050600754600a5401111515610475576040517f08c379a000000000000000000000000000000000000000000000000000000000815260040180806020018281038252601b8152602001807f4f7574206f662061756374696f6e2074696d652077696e646f772e000000000081525060200191505060405180910390fd5b7f56f3a2e5469b07e5bcfe14b735598a3a25c2b0cfd5ced1f453329772000206ff6040518080602001828103825260038152602001807f426964000000000000000000000000000000000000000000000000000000000081525060200191505060405180910390a17f6bb0ae10145670541f4e48e0ad6d8f4b445dbbcae23d2bb23b343fe29cb4599d600c54600e60009054906101000a900473ffffffffffffffffffffffffffffffffffffffff1673ffffffffffffffffffffffffffffffffffffffff1631036040518082815260200191505060405180910390a17f56f3a2e5469b07e5bcfe14b735598a3a25c2b0cfd5ced1f453329772000206ff6040518080602001828103825260158152602001807f73686f756c6420626520686967686572207468616e000000000000000000000081525060200191505060405180910390a17f56f3a2e5469b07e5bcfe14b735598a3a25c2b0cfd5ced1f453329772000206ff60405180806020018281038252600a8152602001807f666f726d6572206269640000000000000000000000000000000000000000000081525060200191505060405180910390a17f6bb0ae10145670541f4e48e0ad6d8f4b445dbbcae23d2bb23b343fe29cb4599d600b546040518082815260200191505060405180910390a1600c54600e60009054906101000a900473ffffffffffffffffffffffffffffffffffffffff1673ffffffffffffffffffffffffffffffffffffffff163103600854600b54011115610713576040517f08c379a000000000000000000000000000000000000000000000000000000000815260040180806020018281038252601b8152602001807f5468697320626964206973206e6f74206869676820656e6f756768000000000081525060200191505060405180910390fd5b600654600e60009054906101000a900473ffffffffffffffffffffffffffffffffffffffff1673ffffffffffffffffffffffffffffffffffffffff163110156107c4576040517f08c379a000000000000000000000000000000000000000000000000000000000815260040180806020018281038252601b8152602001807f5468697320626964206973206e6f74206869676820656e6f756768000000000081525060200191505060405180910390fd5b600b5460106000600f60009054906101000a900473ffffffffffffffffffffffffffffffffffffffff1673ffffffffffffffffffffffffffffffffffffffff1673ffffffffffffffffffffffffffffffffffffffff1681526020019081526020016000206000828254019250508190555033600f60006101000a81548173ffffffffffffffffffffffffffffffffffffffff021916908373ffffffffffffffffffffffffffffffffffffffff160217905550600c54600e60009054906101000a900473ffffffffffffffffffffffffffffffffffffffff1673ffffffffffffffffffffffffffffffffffffffff163103600b819055506108c261100a565b600a81905550600e60009054906101000a900473ffffffffffffffffffffffffffffffffffffffff1673ffffffffffffffffffffffffffffffffffffffff1631600c81905550565b60065481565b3373ffffffffffffffffffffffffffffffffffffffff166108fc601060003373ffffffffffffffffffffffffffffffffffffffff1673ffffffffffffffffffffffffffffffffffffffff168152602001908152602001600020549081150290604051600060405180830381858888f19350505050158015610995573d6000803e3d6000fd5b506000601060003373ffffffffffffffffffffffffffffffffffffffff1673ffffffffffffffffffffffffffffffffffffffff16815260200190815260200160002081905550565b6000600360009054906101000a900473ffffffffffffffffffffffffffffffffffffffff1673ffffffffffffffffffffffffffffffffffffffff1614151515610a8e576040517f08c379a00000000000000000000000000000000000000000000000000000000081526004018080602001828103825260178152602001807f5468657265206973206e6f2077696e6e6572207965742e00000000000000000081525060200191505060405180910390fd5b60008060009054906101000a900473ffffffffffffffffffffffffffffffffffffffff1673ffffffffffffffffffffffffffffffffffffffff161415610af6576001600460146101000a81548160ff021916908315150217905550610af1610910565b610c3a565b6000809054906101000a900473ffffffffffffffffffffffffffffffffffffffff1673ffffffffffffffffffffffffffffffffffffffff163373ffffffffffffffffffffffffffffffffffffffff161480610b9e5750600360009054906101000a900473ffffffffffffffffffffffffffffffffffffffff1673ffffffffffffffffffffffffffffffffffffffff163373ffffffffffffffffffffffffffffffffffffffff16145b15610bcb576001600460146101000a81548160ff021916908315150217905550610bc6610910565b610c39565b6040517f08c379a00000000000000000000000000000000000000000000000000000000081526004018080602001828103825260128152602001807f556e617574686f72697a65642063616c6c2e000000000000000000000000000081525060200191505060405180910390fd5b5b565b6000600360009054906101000a900473ffffffffffffffffffffffffffffffffffffffff1673ffffffffffffffffffffffffffffffffffffffff1614151515610ced576040517f08c379a00000000000000000000000000000000000000000000000000000000081526004018080602001828103825260178152602001807f5468657265206973206e6f2077696e6e6572207965742e00000000000000000081525060200191505060405180910390fd5b600260009054906101000a900473ffffffffffffffffffffffffffffffffffffffff166000809054906101000a900473ffffffffffffffffffffffffffffffffffffffff168173ffffffffffffffffffffffffffffffffffffffff163373ffffffffffffffffffffffffffffffffffffffff161480610d9757508073ffffffffffffffffffffffffffffffffffffffff163373ffffffffffffffffffffffffffffffffffffffff16145b1515610e57576040517f08c379a00000000000000000000000000000000000000000000000000000000081526004018080602001828103825260488152602001807f546869732061646472657373206973206e6f742061626c6520746f2063616c6c81526020017f20746869732066756e6374696f6e20286f6e6c792074776f206164647265737381526020017f65732063616e292e00000000000000000000000000000000000000000000000081525060600191505060405180910390fd5b6001600460156101000a81548160ff0219169083151502179055503073ffffffffffffffffffffffffffffffffffffffff16633ccfd60b6040518163ffffffff167c0100000000000000000000000000000000000000000000000000000000028152600401600060405180830381600087803b158015610ed657600080fd5b505af1158015610eea573d6000803e3d6000fd5b505050505050565b60075481565b6000600d60009054906101000a900473ffffffffffffffffffffffffffffffffffffffff1673ffffffffffffffffffffffffffffffffffffffff1663557ed1ba6040518163ffffffff167c0100000000000000000000000000000000000000000000000000000000028152600401602060405180830381600087803b158015610f8057600080fd5b505af1158015610f94573d6000803e3d6000fd5b505050506040513d6020811015610faa57600080fd5b8101908080519060200190929190505050600754600a54011115610fd15760009050610ff7565b600f60009054906101000a900473ffffffffffffffffffffffffffffffffffffffff1690505b90565b6000600554905090565b60085481565b6000600d60009054906101000a900473ffffffffffffffffffffffffffffffffffffffff1673ffffffffffffffffffffffffffffffffffffffff1663557ed1ba6040518163ffffffff167c0100000000000000000000000000000000000000000000000000000000028152600401602060405180830381600087803b15801561109257600080fd5b505af11580156110a6573d6000803e3d6000fd5b505050506040513d60208110156110bc57600080fd5b81019080805190602001909291905050509050905600a165627a7a72305820ef3d12efd4b9ecf56ebd580054afc12e777633c59ab2fb157a356978ca8701bb0029",
  "source": "pragma solidity ^0.4.18;\r\nimport \"./Auction.sol\";\r\n\r\ncontract EnglishAuction is Auction {\r\n\r\n    uint public initialPrice;\r\n    uint public biddingPeriod;\r\n    uint public minimumPriceIncrement;\r\n\r\n    // TODO: place your code here\r\n    uint currentTime;\r\n    uint startTime;\r\n    uint formerHighestBid;\r\n    uint oldBalance;\r\n    Timer timer;\r\n    address contractAddress;\r\n    address formerHighestBidder;\r\n    mapping(address=>uint) priorBids;\r\n\r\n    event printStr(string str);\r\n    event print(uint256 value);\r\n\r\n    // constructor\r\n    constructor(address _sellerAddress,\r\n                          address _judgeAddress,\r\n                          address _timerAddress,\r\n                          uint _initialPrice,\r\n                          uint _biddingPeriod,\r\n                          uint _minimumPriceIncrement) public\r\n             Auction (_sellerAddress, _judgeAddress, _timerAddress) {\r\n\r\n        initialPrice = _initialPrice;\r\n        biddingPeriod = _biddingPeriod;\r\n        minimumPriceIncrement = _minimumPriceIncrement;\r\n        \r\n        // TODO: place your code here\r\n        timer = Timer(_timerAddress);\r\n        startTime = timer.getTime();\r\n        contractAddress = address(this);\r\n\r\n    }\r\n\r\n    modifier onlyInTimePeriod() {\r\n      require( startTime + biddingPeriod > timer.getTime(), \"Out of auction time window.\");\r\n      _;\r\n    }\r\n\r\n\r\n    function getTime() internal view returns (uint time) {\r\n      return timer.getTime();\r\n    }\r\n\r\n    function bid() public payable onlyInTimePeriod() {\r\n        // TODO: place your code here\r\n        emit printStr(\"Bid\");\r\n        emit print( contractAddress.balance - oldBalance);\r\n        emit printStr(\"should be higher than\");\r\n        emit printStr(\"former bid\");\r\n        emit print(formerHighestBid);\r\n\r\n        if (formerHighestBid + minimumPriceIncrement > contractAddress.balance - oldBalance) { // Compare old balance to new (difference is the new bet.)\r\n          revert(\"This bid is not high enough\");\r\n        }\r\n\r\n        if (contractAddress.balance < initialPrice) {\r\n          revert(\"This bid is not high enough\");\r\n        }\r\n\r\n        priorBids[formerHighestBidder] += formerHighestBid;\r\n        formerHighestBidder = msg.sender;\r\n        formerHighestBid = contractAddress.balance - oldBalance;\r\n        startTime = getTime();\r\n        oldBalance = contractAddress.balance;\r\n    }\r\n\r\n    // Need to override the default implementation\r\n    function getWinner() public view returns (address highestBidder){\r\n      // TODO: place your code here\r\n        if (startTime + biddingPeriod > timer.getTime()) {\r\n          return 0;\r\n        }\r\n        else { return formerHighestBidder; }\r\n    }\r\n\r\n    function withdraw() public {\r\n      msg.sender.transfer(priorBids[msg.sender]);\r\n      priorBids[msg.sender] = 0;\r\n    }\r\n}\r\n",
  "sourcePath": "C:\\Users\\swelly-mapper\\Projects\\CRYPTO\\ethereum_auction_types\\contracts\\EnglishAuction.sol",
  "compiler": {
    "name": "solc",
    "version": "0.4.24+commit.e67f0147.Emscripten.clang"
  },
  "schemaVersion": "2.0.1",
  "updatedAt": "2018-12-02T08:22:45.538Z"
}