{
  "contractName": "Timer",
  "abi": [
    {
      "inputs": [
        {
          "name": "_startTime",
          "type": "uint256"
        }
      ],
      "payable": false,
      "stateMutability": "nonpayable",
      "type": "constructor"
    },
    {
      "constant": true,
      "inputs": [],
      "name": "getTime",
      "outputs": [
        {
          "name": "",
          "type": "uint256"
        }
      ],
      "payable": false,
      "stateMutability": "view",
      "type": "function"
    },
    {
      "constant": false,
      "inputs": [],
      "name": "resetTime",
      "outputs": [],
      "payable": false,
      "stateMutability": "nonpayable",
      "type": "function"
    },
    {
      "constant": false,
      "inputs": [
        {
          "name": "_newTime",
          "type": "uint256"
        }
      ],
      "name": "setTime",
      "outputs": [],
      "payable": false,
      "stateMutability": "nonpayable",
      "type": "function"
    },
    {
      "constant": false,
      "inputs": [
        {
          "name": "_offset",
          "type": "uint256"
        }
      ],
      "name": "offsetTime",
      "outputs": [],
      "payable": false,
      "stateMutability": "nonpayable",
      "type": "function"
    }
  ],
  "bytecode": "0x608060405234801561001057600080fd5b506040516020806103058339810180604052810190808051906020019092919050505033600260006101000a81548173ffffffffffffffffffffffffffffffffffffffff021916908373ffffffffffffffffffffffffffffffffffffffff160217905550806000819055508060018190555050610273806100926000396000f300608060405260043610610062576000357c0100000000000000000000000000000000000000000000000000000000900463ffffffff1680633beb26c414610067578063557ed1ba1461009457806365a114f1146100bf578063de858cb8146100d6575b600080fd5b34801561007357600080fd5b5061009260048036038101908080359060200190929190505050610103565b005b3480156100a057600080fd5b506100a9610169565b6040518082815260200191505060405180910390f35b3480156100cb57600080fd5b506100d4610172565b005b3480156100e257600080fd5b50610101600480360381019080803590602001909291905050506101d9565b005b600260009054906101000a900473ffffffffffffffffffffffffffffffffffffffff1673ffffffffffffffffffffffffffffffffffffffff163373ffffffffffffffffffffffffffffffffffffffff1614151561015f57600080fd5b8060008190555050565b60008054905090565b600260009054906101000a900473ffffffffffffffffffffffffffffffffffffffff1673ffffffffffffffffffffffffffffffffffffffff163373ffffffffffffffffffffffffffffffffffffffff161415156101ce57600080fd5b600154600081905550565b600260009054906101000a900473ffffffffffffffffffffffffffffffffffffffff1673ffffffffffffffffffffffffffffffffffffffff163373ffffffffffffffffffffffffffffffffffffffff1614151561023557600080fd5b806000808282540192505081905550505600a165627a7a72305820e037154d47ec51888ca11f6f4ba892abe8802cbf9ef58c94bd43ce370a0e85490029",
  "source": "pragma solidity ^0.4.18;\r\n\r\n// Simple contract to store time. You should not need to be modify this contract.\r\ncontract Timer {\r\n\r\n    uint time;\r\n    uint startTime;\r\n    address owner;\r\n\r\n    // constructor\r\n    constructor(uint _startTime) public {\r\n        owner = msg.sender;\r\n        time = _startTime;\r\n        startTime = _startTime;\r\n    }\r\n\r\n    function getTime() public view returns (uint) {\r\n        return time;\r\n    }\r\n\r\n    function resetTime() public ownerOnly {\r\n        time = startTime;\r\n    }\r\n\r\n    function setTime(uint _newTime) public ownerOnly {\r\n        time = _newTime;\r\n    }\r\n\r\n    function offsetTime(uint _offset) public ownerOnly {\r\n        time += _offset;\r\n    }\r\n    \r\n    modifier ownerOnly {\r\n        if (msg.sender != owner)\r\n            revert();\r\n        _;\r\n    }\r\n}\r\n",
  "sourcePath": "C:\\Users\\swelly-mapper\\Projects\\CRYPTO\\ethereum_auction_types\\contracts\\Timer.sol",
  "compiler": {
    "name": "solc",
    "version": "0.4.24+commit.e67f0147.Emscripten.clang"
  },
  "schemaVersion": "2.0.1",
  "updatedAt": "2018-12-02T08:22:45.540Z"
}