{
  "contractName": "VickreyAuction",
  "abi": [
    {
      "constant": true,
      "inputs": [],
      "name": "biddingDeadline",
      "outputs": [
        {
          "name": "",
          "type": "uint256"
        }
      ],
      "payable": false,
      "stateMutability": "view",
      "type": "function"
    },
    {
      "constant": true,
      "inputs": [],
      "name": "time",
      "outputs": [
        {
          "name": "",
          "type": "uint256"
        }
      ],
      "payable": false,
      "stateMutability": "view",
      "type": "function"
    },
    {
      "constant": false,
      "inputs": [],
      "name": "refund",
      "outputs": [],
      "payable": false,
      "stateMutability": "nonpayable",
      "type": "function"
    },
    {
      "constant": true,
      "inputs": [],
      "name": "minimumPrice",
      "outputs": [
        {
          "name": "",
          "type": "uint256"
        }
      ],
      "payable": false,
      "stateMutability": "view",
      "type": "function"
    },
    {
      "constant": true,
      "inputs": [],
      "name": "bidDepositAmount",
      "outputs": [
        {
          "name": "",
          "type": "uint256"
        }
      ],
      "payable": false,
      "stateMutability": "view",
      "type": "function"
    },
    {
      "constant": true,
      "inputs": [],
      "name": "revealDeadline",
      "outputs": [
        {
          "name": "",
          "type": "uint256"
        }
      ],
      "payable": false,
      "stateMutability": "view",
      "type": "function"
    },
    {
      "constant": true,
      "inputs": [],
      "name": "getWinningPrice",
      "outputs": [
        {
          "name": "price",
          "type": "uint256"
        }
      ],
      "payable": false,
      "stateMutability": "view",
      "type": "function"
    },
    {
      "inputs": [
        {
          "name": "_sellerAddress",
          "type": "address"
        },
        {
          "name": "_judgeAddress",
          "type": "address"
        },
        {
          "name": "_timerAddress",
          "type": "address"
        },
        {
          "name": "_minimumPrice",
          "type": "uint256"
        },
        {
          "name": "_biddingPeriod",
          "type": "uint256"
        },
        {
          "name": "_revealPeriod",
          "type": "uint256"
        },
        {
          "name": "_bidDepositAmount",
          "type": "uint256"
        }
      ],
      "payable": false,
      "stateMutability": "nonpayable",
      "type": "constructor"
    },
    {
      "constant": false,
      "inputs": [
        {
          "name": "bidCommitment",
          "type": "bytes32"
        }
      ],
      "name": "commitBid",
      "outputs": [],
      "payable": true,
      "stateMutability": "payable",
      "type": "function"
    },
    {
      "constant": false,
      "inputs": [
        {
          "name": "nonce",
          "type": "bytes32"
        }
      ],
      "name": "revealBid",
      "outputs": [
        {
          "name": "isHighestBidder",
          "type": "bool"
        }
      ],
      "payable": true,
      "stateMutability": "payable",
      "type": "function"
    },
    {
      "constant": true,
      "inputs": [],
      "name": "getWinner",
      "outputs": [
        {
          "name": "top",
          "type": "address"
        }
      ],
      "payable": false,
      "stateMutability": "view",
      "type": "function"
    },
    {
      "constant": false,
      "inputs": [],
      "name": "finalize",
      "outputs": [],
      "payable": false,
      "stateMutability": "nonpayable",
      "type": "function"
    },
    {
      "constant": false,
      "inputs": [],
      "name": "withdraw",
      "outputs": [],
      "payable": false,
      "stateMutability": "nonpayable",
      "type": "function"
    }
  ],
  "bytecode": "0x608060405234801561001057600080fd5b5060405160e0806200166f83398101806040528101908080519060200190929190805190602001909291908051906020019092919080519060200190929190805190602001909291908051906020019092919080519060200190929190505050868686816000806101000a81548173ffffffffffffffffffffffffffffffffffffffff021916908373ffffffffffffffffffffffffffffffffffffffff16021790555080600160006101000a81548173ffffffffffffffffffffffffffffffffffffffff021916908373ffffffffffffffffffffffffffffffffffffffff16021790555082600260006101000a81548173ffffffffffffffffffffffffffffffffffffffff021916908373ffffffffffffffffffffffffffffffffffffffff16021790555030600460006101000a81548173ffffffffffffffffffffffffffffffffffffffff021916908373ffffffffffffffffffffffffffffffffffffffff1602179055506000600460146101000a81548160ff0219169083151502179055506000600260009054906101000a900473ffffffffffffffffffffffffffffffffffffffff1673ffffffffffffffffffffffffffffffffffffffff1614156102145733600260006101000a81548173ffffffffffffffffffffffffffffffffffffffff021916908373ffffffffffffffffffffffffffffffffffffffff1602179055505b5050508360068190555080600981905550600654600d81905550826102466102bb640100000000026401000000009004565b0160078190555081836102666102bb640100000000026401000000009004565b010160088190555030600e60006101000a81548173ffffffffffffffffffffffffffffffffffffffff021916908373ffffffffffffffffffffffffffffffffffffffff160217905550505050505050506103cd565b600080600160009054906101000a900473ffffffffffffffffffffffffffffffffffffffff1673ffffffffffffffffffffffffffffffffffffffff161415156103c657600160009054906101000a900473ffffffffffffffffffffffffffffffffffffffff1673ffffffffffffffffffffffffffffffffffffffff1663557ed1ba6040518163ffffffff167c0100000000000000000000000000000000000000000000000000000000028152600401602060405180830381600087803b15801561038457600080fd5b505af1158015610398573d6000803e3d6000fd5b505050506040513d60208110156103ae57600080fd5b810190808051906020019092919050505090506103ca565b4390505b90565b61129280620003dd6000396000f3006080604052600436106100ba576000357c0100000000000000000000000000000000000000000000000000000000900463ffffffff1680630fd388d3146100bf57806316ada547146100ea5780633ccfd60b146101155780634bb278f31461012c578063590e1ae3146101435780637f386b6c1461015a57806386a2cc27146101855780638e7ea5b2146101a9578063aac71c2914610200578063acc9138e1461022b578063b14b28a314610267578063d68895d814610292575b600080fd5b3480156100cb57600080fd5b506100d46102bd565b6040518082815260200191505060405180910390f35b3480156100f657600080fd5b506100ff6102c3565b6040518082815260200191505060405180910390f35b34801561012157600080fd5b5061012a6103d5565b005b34801561013857600080fd5b506101416104a0565b005b34801561014f57600080fd5b50610158610598565b005b34801561016657600080fd5b5061016f61084e565b6040518082815260200191505060405180910390f35b6101a76004803603810190808035600019169060200190929190505050610854565b005b3480156101b557600080fd5b506101be610b75565b604051808273ffffffffffffffffffffffffffffffffffffffff1673ffffffffffffffffffffffffffffffffffffffff16815260200191505060405180910390f35b34801561020c57600080fd5b50610215610c21565b6040518082815260200191505060405180910390f35b61024d6004803603810190808035600019169060200190929190505050610c27565b604051808215151515815260200191505060405180910390f35b34801561027357600080fd5b5061027c610ff7565b6040518082815260200191505060405180910390f35b34801561029e57600080fd5b506102a7610ffd565b6040518082815260200191505060405180910390f35b60075481565b600080600160009054906101000a900473ffffffffffffffffffffffffffffffffffffffff1673ffffffffffffffffffffffffffffffffffffffff161415156103ce57600160009054906101000a900473ffffffffffffffffffffffffffffffffffffffff1673ffffffffffffffffffffffffffffffffffffffff1663557ed1ba6040518163ffffffff167c0100000000000000000000000000000000000000000000000000000000028152600401602060405180830381600087803b15801561038c57600080fd5b505af11580156103a0573d6000803e3d6000fd5b505050506040513d60208110156103b657600080fd5b810190808051906020019092919050505090506103d2565b4390505b90565b3373ffffffffffffffffffffffffffffffffffffffff166108fc601160003373ffffffffffffffffffffffffffffffffffffffff1673ffffffffffffffffffffffffffffffffffffffff168152602001908152602001600020549081150290604051600060405180830381858888f1935050505015801561045a573d6000803e3d6000fd5b50601160003373ffffffffffffffffffffffffffffffffffffffff1673ffffffffffffffffffffffffffffffffffffffff16815260200190815260200160002060009055565b600854806104ac6102c3565b111515610521576040517f08c379a00000000000000000000000000000000000000000000000000000000081526004018080602001828103825260158152602001807f43616e6e6f742062652063616c6c6564207965742e000000000000000000000081525060200191505060405180910390fd5b600d54600b540360116000600f60009054906101000a900473ffffffffffffffffffffffffffffffffffffffff1673ffffffffffffffffffffffffffffffffffffffff1673ffffffffffffffffffffffffffffffffffffffff16815260200190815260200160002081905550610595611007565b50565b6000600360009054906101000a900473ffffffffffffffffffffffffffffffffffffffff1673ffffffffffffffffffffffffffffffffffffffff1614151515610649576040517f08c379a00000000000000000000000000000000000000000000000000000000081526004018080602001828103825260178152602001807f5468657265206973206e6f2077696e6e6572207965742e00000000000000000081525060200191505060405180910390fd5b600260009054906101000a900473ffffffffffffffffffffffffffffffffffffffff166000809054906101000a900473ffffffffffffffffffffffffffffffffffffffff168173ffffffffffffffffffffffffffffffffffffffff163373ffffffffffffffffffffffffffffffffffffffff1614806106f357508073ffffffffffffffffffffffffffffffffffffffff163373ffffffffffffffffffffffffffffffffffffffff16145b15156107b3576040517f08c379a00000000000000000000000000000000000000000000000000000000081526004018080602001828103825260488152602001807f546869732061646472657373206973206e6f742061626c6520746f2063616c6c81526020017f20746869732066756e6374696f6e20286f6e6c792074776f206164647265737381526020017f65732063616e292e00000000000000000000000000000000000000000000000081525060600191505060405180910390fd5b6001600460156101000a81548160ff0219169083151502179055503073ffffffffffffffffffffffffffffffffffffffff16633ccfd60b6040518163ffffffff167c0100000000000000000000000000000000000000000000000000000000028152600401600060405180830381600087803b15801561083257600080fd5b505af1158015610846573d6000803e3d6000fd5b505050505050565b60065481565b60075461085f6102c3565b811115156108d5576040517f08c379a000000000000000000000000000000000000000000000000000000000815260040180806020018281038252601b8152602001807f4f7574206f662061756374696f6e2074696d652077696e646f772e000000000081525060200191505060405180910390fd5b6000600102821891506000600102601060003373ffffffffffffffffffffffffffffffffffffffff1673ffffffffffffffffffffffffffffffffffffffff168152602001908152602001600020546000191614156109e457600954600a5401600e60009054906101000a900473ffffffffffffffffffffffffffffffffffffffff1673ffffffffffffffffffffffffffffffffffffffff16311415156109e3576040517f08c379a00000000000000000000000000000000000000000000000000000000081526004018080602001828103825260168152602001807f4465706f736974206973206e6f7420636f72726563740000000000000000000081525060200191505060405180910390fd5b5b6000600102601060003373ffffffffffffffffffffffffffffffffffffffff1673ffffffffffffffffffffffffffffffffffffffff168152602001908152602001600020546000191614158015610a765750600a54600e60009054906101000a900473ffffffffffffffffffffffffffffffffffffffff1673ffffffffffffffffffffffffffffffffffffffff163114155b15610ae9576040517f08c379a000000000000000000000000000000000000000000000000000000000815260040180806020018281038252601c8152602001807f4e6f206e65656420666f7220616e6f74686572206465706f7369742e0000000081525060200191505060405180910390fd5b81601060003373ffffffffffffffffffffffffffffffffffffffff1673ffffffffffffffffffffffffffffffffffffffff1681526020019081526020016000208160001916905550600e60009054906101000a900473ffffffffffffffffffffffffffffffffffffffff1673ffffffffffffffffffffffffffffffffffffffff1631600a819055505050565b600060085480610b836102c3565b111515610bf8576040517f08c379a00000000000000000000000000000000000000000000000000000000081526004018080602001828103825260158152602001807f43616e6e6f742062652063616c6c6564207965742e000000000000000000000081525060200191505060405180910390fd5b600c60009054906101000a900473ffffffffffffffffffffffffffffffffffffffff1691505090565b60095481565b6000806000600854610c376102c3565b81111515610cad576040517f08c379a000000000000000000000000000000000000000000000000000000000815260040180806020018281038252601b8152602001807f4f7574206f662061756374696f6e2074696d652077696e646f772e000000000081525060200191505060405180910390fd5b60006001028518945060009350600a54600e60009054906101000a900473ffffffffffffffffffffffffffffffffffffffff1673ffffffffffffffffffffffffffffffffffffffff16310392508483604051602001808360001916600019168152602001828152602001925050506040516020818303038152906040526040518082805190602001908083835b602083101515610d5f5780518252602082019150602081019050602083039250610d3a565b6001836020036101000a03801982511681845116808217855250505050505090500191505060405180910390209150601060003373ffffffffffffffffffffffffffffffffffffffff1673ffffffffffffffffffffffffffffffffffffffff16815260200190815260200160002054600019168260001916141515610e4c576040517f08c379a000000000000000000000000000000000000000000000000000000000815260040180806020018281038252601e8152602001807f536f6d657468696e6720646f6573206e6f742068617368206f75742e2e2e000081525060200191505060405180910390fd5b601060003373ffffffffffffffffffffffffffffffffffffffff1673ffffffffffffffffffffffffffffffffffffffff168152602001908152602001600020600090553373ffffffffffffffffffffffffffffffffffffffff166108fc6009549081150290604051600060405180830381858888f19350505050158015610ed7573d6000803e3d6000fd5b5082601160003373ffffffffffffffffffffffffffffffffffffffff1673ffffffffffffffffffffffffffffffffffffffff16815260200190815260200160002081905550600b54831115610f995760065483101515610f3657600193505b6000600b54141515610f4c57600b54600d819055505b82600b8190555033600c60006101000a81548173ffffffffffffffffffffffffffffffffffffffff021916908373ffffffffffffffffffffffffffffffffffffffff160217905550610fac565b600b54831415610fab5782600d819055505b5b600e60009054906101000a900473ffffffffffffffffffffffffffffffffffffffff1673ffffffffffffffffffffffffffffffffffffffff1631600a81905550839350505050919050565b60085481565b6000600554905090565b6000600360009054906101000a900473ffffffffffffffffffffffffffffffffffffffff1673ffffffffffffffffffffffffffffffffffffffff16141515156110b8576040517f08c379a00000000000000000000000000000000000000000000000000000000081526004018080602001828103825260178152602001807f5468657265206973206e6f2077696e6e6572207965742e00000000000000000081525060200191505060405180910390fd5b60008060009054906101000a900473ffffffffffffffffffffffffffffffffffffffff1673ffffffffffffffffffffffffffffffffffffffff161415611120576001600460146101000a81548160ff02191690831515021790555061111b6103d5565b611264565b6000809054906101000a900473ffffffffffffffffffffffffffffffffffffffff1673ffffffffffffffffffffffffffffffffffffffff163373ffffffffffffffffffffffffffffffffffffffff1614806111c85750600360009054906101000a900473ffffffffffffffffffffffffffffffffffffffff1673ffffffffffffffffffffffffffffffffffffffff163373ffffffffffffffffffffffffffffffffffffffff16145b156111f5576001600460146101000a81548160ff0219169083151502179055506111f06103d5565b611263565b6040517f08c379a00000000000000000000000000000000000000000000000000000000081526004018080602001828103825260128152602001807f556e617574686f72697a65642063616c6c2e000000000000000000000000000081525060200191505060405180910390fd5b5b5600a165627a7a723058203ad4e552503707927312e8ef668932224959e0d8e8a749cf42597d322a74fa220029",
  "source": "pragma solidity ^0.4.18;\r\nimport \"./Auction.sol\";\r\n\r\ncontract VickreyAuction is Auction {\r\n\r\n    uint public minimumPrice;\r\n    uint public biddingDeadline;\r\n    uint public revealDeadline;\r\n    uint public bidDepositAmount;\r\n\r\n    // TODO: place your code here\r\n    uint oldBalance;\r\n    uint highestBidThusFar;\r\n    address highestBidderThusFar;\r\n    uint secondHighestBid;\r\n    address contractAddress;\r\n    address topBidder;\r\n    mapping(address=>bytes32) commitments;\r\n    mapping(address=>uint) bids;\r\n\r\n    // constructor\r\n    constructor(address _sellerAddress,\r\n                            address _judgeAddress,\r\n                            address _timerAddress,\r\n                            uint _minimumPrice,\r\n                            uint _biddingPeriod,\r\n                            uint _revealPeriod,\r\n                            uint _bidDepositAmount) public\r\n             Auction (_sellerAddress, _judgeAddress, _timerAddress) {\r\n\r\n        minimumPrice = _minimumPrice;\r\n        bidDepositAmount = _bidDepositAmount;\r\n        secondHighestBid = minimumPrice;\r\n        biddingDeadline = time() + _biddingPeriod;\r\n        revealDeadline = time() + _biddingPeriod + _revealPeriod;\r\n\r\n        // TODO: place your code here\r\n        contractAddress = address(this);\r\n    }\r\n\r\n    modifier onlyInTimePeriod(uint endTime) {\r\n      require( endTime > time(), \"Out of auction time window.\");\r\n      _;\r\n    }\r\n\r\n    modifier onlyAfter(uint startTime) {\r\n      require( time() > startTime, \"Cannot be called yet.\");\r\n      _;\r\n    }\r\n\r\n    // Record the player's bid commitment\r\n    // Make sure exactly bidDepositAmount is provided (for new bids)\r\n    // Bidders can update their previous bid for free if desired.\r\n    // Only allow commitments before biddingDeadline\r\n    function commitBid(bytes32 bidCommitment) public payable onlyInTimePeriod(biddingDeadline) {\r\n        // NOOP to silence compiler warning. Delete me.\r\n        bidCommitment ^= 0;\r\n\r\n        // TODO: place your code here\r\n        if (commitments[msg.sender]==0) // If it is not zero, then we can update the commitment for free.\r\n          if (contractAddress.balance != oldBalance + bidDepositAmount) revert('Deposit is not correct');\r\n        if (commitments[msg.sender]!=0 && contractAddress.balance != oldBalance) revert('No need for another deposit.');\r\n        commitments[msg.sender] = bidCommitment;\r\n        oldBalance = contractAddress.balance;\r\n    }\r\n\r\n    // Check that the bid (msg.value) matches the commitment.\r\n    // If the bid is correctly opened, the bidder can withdraw their deposit.\r\n    function revealBid(bytes32 nonce) public payable onlyInTimePeriod(revealDeadline) returns(bool isHighestBidder) {\r\n        // NOOPs to silence compiler warning. Delete me.\r\n        nonce ^= 0;\r\n        isHighestBidder = false;\r\n\r\n        // TODO: place your code here\r\n        uint bidValue = contractAddress.balance - oldBalance;\r\n        bytes32 supposedHash = keccak256(abi.encodePacked(nonce, bidValue));\r\n        if (supposedHash != commitments[msg.sender])\r\n          revert(\"Something does not hash out...\");\r\n        delete commitments[msg.sender];\r\n        msg.sender.transfer(bidDepositAmount);\r\n        bids[msg.sender] = bidValue;\r\n\r\n        if (bidValue > highestBidThusFar) {\r\n          if (bidValue >= minimumPrice) isHighestBidder = true;\r\n          if (highestBidThusFar != 0) secondHighestBid = highestBidThusFar;\r\n          highestBidThusFar = bidValue;\r\n          highestBidderThusFar = msg.sender;\r\n        }\r\n\r\n        else if (bidValue == highestBidThusFar) {\r\n          secondHighestBid = bidValue;\r\n        }\r\n\r\n        oldBalance = contractAddress.balance;\r\n        return isHighestBidder;\r\n    }\r\n\r\n    // Need to override the default implementation\r\n    function getWinner() public view onlyAfter(revealDeadline) returns (address top) {\r\n        // TODO: place your code here\r\n        return highestBidderThusFar;\r\n    }\r\n\r\n    // finalize() must be extended here to provide a refund to the winner\r\n    // based on the final sale price (the second highest bid, or reserve price).\r\n    function finalize() public onlyAfter(revealDeadline){\r\n        // TODO: place your code here\r\n        bids[topBidder] = highestBidThusFar - secondHighestBid;\r\n        // call the general finalize() logic\r\n        super.finalize();\r\n    }\r\n\r\n    function withdraw() public {\r\n      msg.sender.transfer(bids[msg.sender]);\r\n      delete bids[msg.sender];\r\n    }\r\n}\r\n",
  "sourcePath": "C:\\Users\\swelly-mapper\\Projects\\CRYPTO\\ethereum_auction_types\\contracts\\VickreyAuction.sol",
  "compiler": {
    "name": "solc",
    "version": "0.4.24+commit.e67f0147.Emscripten.clang"
  },
  "schemaVersion": "2.0.1",
  "updatedAt": "2018-12-02T08:22:45.546Z"
}