{
  "contractName": "VickreyAuction",
  "abi": [
    {
      "constant": true,
      "inputs": [],
      "name": "biddingDeadline",
      "outputs": [
        {
          "name": "",
          "type": "uint256"
        }
      ],
      "payable": false,
      "stateMutability": "view",
      "type": "function"
    },
    {
      "constant": true,
      "inputs": [],
      "name": "time",
      "outputs": [
        {
          "name": "",
          "type": "uint256"
        }
      ],
      "payable": false,
      "stateMutability": "view",
      "type": "function"
    },
    {
      "constant": false,
      "inputs": [],
      "name": "withdraw",
      "outputs": [],
      "payable": false,
      "stateMutability": "nonpayable",
      "type": "function"
    },
    {
      "constant": false,
      "inputs": [],
      "name": "refund",
      "outputs": [],
      "payable": false,
      "stateMutability": "nonpayable",
      "type": "function"
    },
    {
      "constant": true,
      "inputs": [],
      "name": "minimumPrice",
      "outputs": [
        {
          "name": "",
          "type": "uint256"
        }
      ],
      "payable": false,
      "stateMutability": "view",
      "type": "function"
    },
    {
      "constant": true,
      "inputs": [],
      "name": "bidDepositAmount",
      "outputs": [
        {
          "name": "",
          "type": "uint256"
        }
      ],
      "payable": false,
      "stateMutability": "view",
      "type": "function"
    },
    {
      "constant": true,
      "inputs": [],
      "name": "revealDeadline",
      "outputs": [
        {
          "name": "",
          "type": "uint256"
        }
      ],
      "payable": false,
      "stateMutability": "view",
      "type": "function"
    },
    {
      "constant": true,
      "inputs": [],
      "name": "getWinningPrice",
      "outputs": [
        {
          "name": "price",
          "type": "uint256"
        }
      ],
      "payable": false,
      "stateMutability": "view",
      "type": "function"
    },
    {
      "inputs": [
        {
          "name": "_sellerAddress",
          "type": "address"
        },
        {
          "name": "_judgeAddress",
          "type": "address"
        },
        {
          "name": "_timerAddress",
          "type": "address"
        },
        {
          "name": "_minimumPrice",
          "type": "uint256"
        },
        {
          "name": "_biddingPeriod",
          "type": "uint256"
        },
        {
          "name": "_revealPeriod",
          "type": "uint256"
        },
        {
          "name": "_bidDepositAmount",
          "type": "uint256"
        }
      ],
      "payable": false,
      "stateMutability": "nonpayable",
      "type": "constructor"
    },
    {
      "constant": false,
      "inputs": [
        {
          "name": "bidCommitment",
          "type": "bytes32"
        }
      ],
      "name": "commitBid",
      "outputs": [],
      "payable": true,
      "stateMutability": "payable",
      "type": "function"
    },
    {
      "constant": false,
      "inputs": [
        {
          "name": "nonce",
          "type": "bytes32"
        }
      ],
      "name": "revealBid",
      "outputs": [
        {
          "name": "isHighestBidder",
          "type": "bool"
        }
      ],
      "payable": true,
      "stateMutability": "payable",
      "type": "function"
    },
    {
      "constant": true,
      "inputs": [],
      "name": "getWinner",
      "outputs": [
        {
          "name": "winner",
          "type": "address"
        }
      ],
      "payable": false,
      "stateMutability": "view",
      "type": "function"
    },
    {
      "constant": false,
      "inputs": [],
      "name": "finalize",
      "outputs": [],
      "payable": false,
      "stateMutability": "nonpayable",
      "type": "function"
    }
  ],
  "bytecode": "0x608060405234801561001057600080fd5b5060405160e080610c8a83398101806040528101908080519060200190929190805190602001909291908051906020019092919080519060200190929190805190602001909291908051906020019092919080519060200190929190505050868686816000806101000a81548173ffffffffffffffffffffffffffffffffffffffff021916908373ffffffffffffffffffffffffffffffffffffffff16021790555080600160006101000a81548173ffffffffffffffffffffffffffffffffffffffff021916908373ffffffffffffffffffffffffffffffffffffffff16021790555082600260006101000a81548173ffffffffffffffffffffffffffffffffffffffff021916908373ffffffffffffffffffffffffffffffffffffffff16021790555030600460006101000a81548173ffffffffffffffffffffffffffffffffffffffff021916908373ffffffffffffffffffffffffffffffffffffffff1602179055506000600460146101000a81548160ff0219169083151502179055506000600260009054906101000a900473ffffffffffffffffffffffffffffffffffffffff1673ffffffffffffffffffffffffffffffffffffffff1614156102135733600260006101000a81548173ffffffffffffffffffffffffffffffffffffffff021916908373ffffffffffffffffffffffffffffffffffffffff1602179055505b50505083600681905550806009819055508261023c610270640100000000026401000000009004565b01600781905550818361025c610270640100000000026401000000009004565b010160088190555050505050505050610382565b600080600160009054906101000a900473ffffffffffffffffffffffffffffffffffffffff1673ffffffffffffffffffffffffffffffffffffffff1614151561037b57600160009054906101000a900473ffffffffffffffffffffffffffffffffffffffff1673ffffffffffffffffffffffffffffffffffffffff1663557ed1ba6040518163ffffffff167c0100000000000000000000000000000000000000000000000000000000028152600401602060405180830381600087803b15801561033957600080fd5b505af115801561034d573d6000803e3d6000fd5b505050506040513d602081101561036357600080fd5b8101908080519060200190929190505050905061037f565b4390505b90565b6108f9806103916000396000f3006080604052600436106100ba576000357c0100000000000000000000000000000000000000000000000000000000900463ffffffff1680630fd388d3146100bf57806316ada547146100ea5780633ccfd60b146101155780634bb278f31461012c578063590e1ae3146101435780637f386b6c1461015a57806386a2cc27146101855780638e7ea5b2146101a9578063aac71c2914610200578063acc9138e1461022b578063b14b28a314610267578063d68895d814610292575b600080fd5b3480156100cb57600080fd5b506100d46102bd565b6040518082815260200191505060405180910390f35b3480156100f657600080fd5b506100ff6102c3565b6040518082815260200191505060405180910390f35b34801561012157600080fd5b5061012a6103d5565b005b34801561013857600080fd5b5061014161056a565b005b34801561014f57600080fd5b50610158610574565b005b34801561016657600080fd5b5061016f61075e565b6040518082815260200191505060405180910390f35b6101a76004803603810190808035600019169060200190929190505050610764565b005b3480156101b557600080fd5b506101be610770565b604051808273ffffffffffffffffffffffffffffffffffffffff1673ffffffffffffffffffffffffffffffffffffffff16815260200191505060405180910390f35b34801561020c57600080fd5b50610215610778565b6040518082815260200191505060405180910390f35b61024d600480360381019080803560001916906020019092919050505061077e565b604051808215151515815260200191505060405180910390f35b34801561027357600080fd5b5061027c610791565b6040518082815260200191505060405180910390f35b34801561029e57600080fd5b506102a7610797565b6040518082815260200191505060405180910390f35b60075481565b600080600160009054906101000a900473ffffffffffffffffffffffffffffffffffffffff1673ffffffffffffffffffffffffffffffffffffffff161415156103ce57600160009054906101000a900473ffffffffffffffffffffffffffffffffffffffff1673ffffffffffffffffffffffffffffffffffffffff1663557ed1ba6040518163ffffffff167c0100000000000000000000000000000000000000000000000000000000028152600401602060405180830381600087803b15801561038c57600080fd5b505af11580156103a0573d6000803e3d6000fd5b505050506040513d60208110156103b657600080fd5b810190808051906020019092919050505090506103d2565b4390505b90565b600260009054906101000a900473ffffffffffffffffffffffffffffffffffffffff1673ffffffffffffffffffffffffffffffffffffffff163373ffffffffffffffffffffffffffffffffffffffff16148061047d57506000809054906101000a900473ffffffffffffffffffffffffffffffffffffffff1673ffffffffffffffffffffffffffffffffffffffff163373ffffffffffffffffffffffffffffffffffffffff16145b15610568576000600360009054906101000a900473ffffffffffffffffffffffffffffffffffffffff1673ffffffffffffffffffffffffffffffffffffffff1614151561056757600360009054906101000a900473ffffffffffffffffffffffffffffffffffffffff1673ffffffffffffffffffffffffffffffffffffffff166108fc600460009054906101000a900473ffffffffffffffffffffffffffffffffffffffff1673ffffffffffffffffffffffffffffffffffffffff16319081150290604051600060405180830381858888f19350505050158015610565573d6000803e3d6000fd5b505b5b565b6105726107a1565b565b600260009054906101000a900473ffffffffffffffffffffffffffffffffffffffff166000809054906101000a900473ffffffffffffffffffffffffffffffffffffffff168173ffffffffffffffffffffffffffffffffffffffff163373ffffffffffffffffffffffffffffffffffffffff16148061061e57508073ffffffffffffffffffffffffffffffffffffffff163373ffffffffffffffffffffffffffffffffffffffff16145b15156106de576040517f08c379a00000000000000000000000000000000000000000000000000000000081526004018080602001828103825260488152602001807f546869732061646472657373206973206e6f742061626c6520746f2063616c6c81526020017f20746869732066756e6374696f6e20286f6e6c792074776f206164647265737381526020017f65732063616e292e00000000000000000000000000000000000000000000000081525060600191505060405180910390fd5b3073ffffffffffffffffffffffffffffffffffffffff16633ccfd60b6040518163ffffffff167c0100000000000000000000000000000000000000000000000000000000028152600401600060405180830381600087803b15801561074257600080fd5b505af1158015610756573d6000803e3d6000fd5b505050505050565b60065481565b60006001028118905050565b600080905090565b60095481565b6000806001028218915060009050919050565b60085481565b6000600554905090565b60008060009054906101000a900473ffffffffffffffffffffffffffffffffffffffff1673ffffffffffffffffffffffffffffffffffffffff161415610801576001600460146101000a81548160ff0219169083151502179055506108cb565b6000809054906101000a900473ffffffffffffffffffffffffffffffffffffffff1673ffffffffffffffffffffffffffffffffffffffff163373ffffffffffffffffffffffffffffffffffffffff1614806108a95750600360009054906101000a900473ffffffffffffffffffffffffffffffffffffffff1673ffffffffffffffffffffffffffffffffffffffff163373ffffffffffffffffffffffffffffffffffffffff16145b156108ca576001600460146101000a81548160ff0219169083151502179055505b5b5600a165627a7a72305820c1fad4705ce767dd42c35937c0edb721cc71e3f93b9f58de40037023fd6069ed0029",
  "source": "pragma solidity ^0.4.18;\r\nimport \"./Auction.sol\";\r\n\r\ncontract VickreyAuction is Auction {\r\n\r\n    uint public minimumPrice;\r\n    uint public biddingDeadline;\r\n    uint public revealDeadline;\r\n    uint public bidDepositAmount;\r\n\r\n    // TODO: place your code here\r\n\r\n    // constructor\r\n    constructor(address _sellerAddress,\r\n                            address _judgeAddress,\r\n                            address _timerAddress,\r\n                            uint _minimumPrice,\r\n                            uint _biddingPeriod,\r\n                            uint _revealPeriod,\r\n                            uint _bidDepositAmount) public\r\n             Auction (_sellerAddress, _judgeAddress, _timerAddress) {\r\n\r\n        minimumPrice = _minimumPrice;\r\n        bidDepositAmount = _bidDepositAmount;\r\n        biddingDeadline = time() + _biddingPeriod;\r\n        revealDeadline = time() + _biddingPeriod + _revealPeriod;\r\n\r\n        // TODO: place your code here\r\n    }\r\n\r\n    // Record the player's bid commitment\r\n    // Make sure exactly bidDepositAmount is provided (for new bids)\r\n    // Bidders can update their previous bid for free if desired.\r\n    // Only allow commitments before biddingDeadline\r\n    function commitBid(bytes32 bidCommitment) public payable {\r\n        // NOOP to silence compiler warning. Delete me.\r\n        bidCommitment ^= 0;\r\n\r\n        // TODO: place your code here\r\n    }\r\n\r\n    // Check that the bid (msg.value) matches the commitment.\r\n    // If the bid is correctly opened, the bidder can withdraw their deposit.\r\n    function revealBid(bytes32 nonce) public payable returns(bool isHighestBidder) {\r\n        // NOOPs to silence compiler warning. Delete me.\r\n        nonce ^= 0;\r\n        isHighestBidder = false;\r\n\r\n        // TODO: place your code here\r\n    }\r\n\r\n    // Need to override the default implementation\r\n    function getWinner() public view returns (address winner){\r\n        // TODO: place your code here\r\n        return winner;\r\n    }\r\n\r\n    // finalize() must be extended here to provide a refund to the winner\r\n    // based on the final sale price (the second highest bid, or reserve price).\r\n    function finalize() public {\r\n        // TODO: place your code here\r\n\r\n        // call the general finalize() logic\r\n        super.finalize();\r\n    }\r\n}\r\n",
  "sourcePath": "C:\\Users\\swelly-mapper\\Projects\\CRYPTO\\solidityAuctionHouse\\contracts\\VickreyAuction.sol",
  "compiler": {
    "name": "solc",
    "version": "0.4.24+commit.e67f0147.Emscripten.clang"
  },
  "schemaVersion": "2.0.1",
  "updatedAt": "2018-12-01T23:01:12.718Z"
}